:08000000D60604000000000018
:1002000064EA2000040C880064EA2000340C8800B2
:1002100064EA2000640C880064EA2000940C8800E2
:10022000000006000000E0004220AF00060037009A
:100230002935090000000000FF3F09000000000010
:100240000000E900F7FF37000000060082002000F0
:100250001C00090000000000E262A900DE62A900A3
:100260001D0009000000000081C0D200E242A90088
:100270004200AF00DE42A8004200AE00DE42A9000C
:10028000DE62A800E062AE00FEFF37000201E90076
:10029000EFFF3A001C00090000000000E262A90024
:1002A000DE62A90000000000DE42A8001D00090077
:1002B000000000001D00090000000000DE62A80030
:1002C000E062AE00FEFF37001D00090000000000E4
:1002D00000002000E042AF000000A000E262A900A0
:1002E000DE62A900E242A900DE42A9000000060089
:1002F000851F7800DE42A8001C00090000000000F5
:10030000DE62A8001D00090000000000E242A90012
:10031000DE42A9001C00090000000000E262A90002
:10032000DE62A900344780006220B80080027800B5
:1003300005007800E808B400800278008540780065
:100340002601020000000000CF0278000000060035
:10035000E828EF00E208F800E608F900780102005A
:100360000000000000000600DE42A90000000000BE
:10037000DE62A800E062AE00FEFF37001C0009004C
:10038000000000000100090000000000DE42A8009B
:100390001C000900000000000000060034052000D9
:1003A00014478800A801020000000000E1CFB3005C
:1003B000260102000000000041C0B3002601020037
:1003C00000000000B4010200000000000000060070
:1003D000C662A900CA62A900C682A900CA82A80092
:1003E000C6A2A900CAA2A800A622EF002A010900FD
:1003F00000000000A002A900A022A800A002AE00F8
:10040000FEFF3700001480004400DD00B044880087
:1004100014002000341588002A01090000000000A3
:10042000A002A900A022A800A002AE00FEFF370093
:10043000001480004400DD00C04488002400200037
:10044000341588002A01090000000000A002A9005C
:10045000A022A800A002AE00FEFF3700001480001A
:100460004400DD00D044880064002000341588007A
:100470002A01090000000000A002A900A022A80093
:10048000A002AE00FEFF3700001480004400DD0033
:10049000E044880084002000341588002A01090007
:1004A00000000000A002A900A022A800A002AE0047
:1004B000FEFF3700001480004400DD00F044880097
:1004C000000006001400200044478800E208F800FD
:1004D000E608F900780102000000000000000600B4
:1004E00083002000DE42A8001D000900000000007B
:1004F000DE62A800E062AE00FEFF3700E042AF001F
:100500004200A800E042AE004200A9000281D200F1
:100510001C00090000000000DE62A900E262A900E0
:100520008301E900EFFF3A00DE42A8001D00090048
:1005300000000000E242A9000100E0004220AE00FD
:10054000DE42A90000000000DE62A800E062AE000A
:10055000FEFF37001C00090000000000E262A90055
:10056000DE62A9001D00090000000000E242A900AF
:10057000DE42A9000200780000000600851F780016
:10058000861F78002405200014478800A801020077
:10059000000000008040EB00260102000000000087
:1005A000B401020000000000240520001447880068
:1005B0006202020000000000DE28EF00F446800026
:1005C0006620E10013003D00F0468000DC08B40026
:1005D00080027800F44680006520E10002003A00C5
:1005E0000040EB000100370010C0B300004378006A
:1005F000864078000360EF00811F7800CF0078000C
:100600007002020000000000804A7800DE28EC0042
:10061000EAFF3700B4010200000000004F03780039
:10062000CF02780000000600851F7800C50020007A
:1006300003000900B51F7800090020004300AF0047
:1006400019002000891F78000002EB008002EB00F7
:100650000003EB008003EB0003046900110032008B
:10066000080220004200A9000080D2008180D20050
:100670000482D2008582D2000328E10001003A0002
:1006800002A0E100030039000202520083825A00F6
:100690004200A8000683D2008783D2000804E90044
:1006A000F0FF3A008700780006007800CF04780059
:1006B0000900E000010032000400BE002501200016
:1006C00003000900CF127800CF0278000000060076
:1006D000851F780005478000C22ADE0005407800AB
:1006E00001E0B7000040EB00F44680000400400049
:1006F00020478800E628EF00E208E2000A003A00FE
:100700004300A900204780003147800002052000F7
:1007100003002000140302000000000020478800AE
:100720003147880008003700440020000960EF00CE
:100730000402E8000402E90003003200E628D500C4
:10074000E4A8D700FBFF3700204780003147800036
:10075000CF02780000000600C762A8000040EB004E
:10076000C962AF000000E8006104E100FAFF320056
:10077000D4C8BF001922AF00FEFF37001AE2B7004D
:100780001B62EF0000000600851F7800CEC8BF0086
:10079000D4E8B700AC03020000000000CFC8BF00DF
:1007A000800278000B60EF00D408F800E5FF9F009E
:1007B000D408F900AC03020000000000CF0278006A
:1007C00000000600851F78009608F800CE08F900A2
:1007D000C4030200000000009808F800CE08F900E9
:1007E000C4030200000000009A08F800CE08F900D7
:1007F000C4030200000000003545800075468800F3
:10080000C4030200000000005545800075468800C2
:10081000C403020000000000754580007546880092
:10082000C4030200000000009E08F800CE08F90092
:10083000C4030200000000009C08F800CE08F90084
:10084000C403020000000000CF0278000000060090
:100850001802AE00FEFF37001802F8000608F90083
:10086000E01080001822A90000000600851F780013
:10087000C500200003000900B51F78000202B8007F
:1008800003F0A600020037000383B900010037001F
:100890000303B8004200A9008502430060844B00B6
:1008A00001F0A60002003700028BB90001003700FA
:1008B000020BB80085024B0008844B000980B00091
:1008C000038BB90008044B0087834C008701780034
:1008D00008017800850078000400780025012000D8
:1008E00003000900CF127800CF0278000000060054
:1008F000851F7800C500200003000900B51F78009F
:10090000090020004300AF0019002000891F780073
:100910008384680001F0A600060037000000EA00AA
:100920000100320002003A008100EA0001003700B5
:100930008180EA0003F0A600060037000201EA0009
:100940000100320002003A008301EA000100370092
:100950008381EA0003026900150032000002EB0007
:100960008002EB000003EB008003EB000802200094
:100970004200A9000080D2008180D2000482D2000F
:100980008582D2000328E10001003A0002A0E100C4
:10099000030039000202520083825A004200A8007C
:1009A0000683D2008783D2000804E900F0FF3A00F2
:1009B00009F0A600070037000600EA000100320037
:1009C00002003A008700EA00050037008780EA004D
:1009D0000300370087007800060078000000370029
:1009E000CF0478000900E000010032000400BE00DE
:1009F0002501200003000900CF127800CF02780003
:100A000000000600851F7800861F7800A44680003D
:100A10006020E10007003C000300350094468000A0
:100A20006020E100030031000000200001002000F0
:100A30000D003700A44680006020E100080035006A
:100A400004003C0094468000F37F20000418E1007D
:100A500003003100F07F2000010020000200370079
:100A600090468000A146800090468800A1468800FC
:100A7000C44680006020E10007003C000300350010
:100A8000B44680006020E100030031000000200037
:100A9000010020000D003700C44680006020E10006
:100AA0000800350004003C00B4468000F37F2000BD
:100AB0000418E10003003100F07F20000100200055
:100AC00002003700B0468000C1468000B046880072
:100AD000C1468800E44680006020E10007003C0039
:100AE00003003500D44680006020E100030031009F
:100AF00000002000010020000D003700E4468000C7
:100B00006020E1000800350004003C00D44680006D
:100B1000F37F20000418E10003003100F07F200083
:100B20000100200002003700D0468000E14680002E
:100B3000D0468800E1468800044780006020E1003C
:100B400007003C0003003500F44680006020E1000F
:100B50000300310000002000010020000D003700DC
:100B6000044780006020E1000800350004003C00DC
:100B7000F4468000F37F20000418E10003003100F8
:100B8000F07F20000100200002003700F0468000C6
:100B900001478000F04688000147880090468000A9
:100BA000A14680001201200003002000360402004C
:100BB0000000000080027800010378004300A900D3
:100BC00005007800860078008200200003002000E5
:100BD0007804020000000000C4F3200084024000FA
:100BE000E080480001037800050C8800B0468000D2
:100BF000C1468000A200200003002000360402004D
:100C00000000000080027800010378004300A90082
:100C100005007800860078006200200003002000B4
:100C20007804020000000000C4F3200084024000A9
:100C3000E080480001037800350C8800D046800031
:100C4000E1468000B20020000300200036040200CC
:100C50000000000080027800010378004300A90032
:100C60000500780086007800620020000300200064
:100C70007804020000000000C4F320008402400059
:100C8000E080480001037800650C8800F046800091
:100C900001478000A200200003002000360402006B
:100CA0000000000080027800010378004300A900E2
:100CB0000500780086007800620020000300200014
:100CC0007804020000000000C4F320008402400009
:100CD000E080480001037800950C88004F037800FD
:100CE000CF02780000000600851F7800280402006B
:100CF000000000000160EF004300DD005046880066
:100D000028040200000000000160EF004300DD0045
:100D10006046880028040200000000000160EF0027
:100D20004300DD0070468800280402000000000037
:100D30000160EF004300DD0080468800CA08F8002B
:100D4000D208F9000002EB00D3E8AF000082EB000C
:100D5000A4468800CC08F800D608F9000002EB0091
:100D6000D7E8AF000082EB00C4468800CE08F80048
:100D7000DA08F9000002EB00DBE8AF000082EB00CC
:100D8000E4468800D008F800DE08F9000002EB0015
:100D9000DFE8AF000082EB00044788000205020094
:100DA00000000000CF0278000000060081E0A900EA
:100DB000044028006410880004402000741088005B
:100DC000240C2000A410880004002800B41088001F
:100DD00004402000C410880004032000F4108800A0
:100DE000A8A2EF000FF82000F0FF200020A0B7001D
:100DF000000000000028EF000668EF00041A2A0037
:100E0000444088000430200054408800E410200052
:100E10006440880004F0200074408800D4A02000C2
:100E200084408800041A2A0094408800043020007E
:100E3000A4408800C4002000B440880004C0200002
:100E4000C4408800D4A02000D4408800041A2A009E
:100E5000E440880004302000F44088009410200012
:100E6000044188000490200014418800D4A0200090
:100E700024418800041A2A003441880004302000EC
:100E800044418800941020005441880004902000C0
:100E900064418800D4A0200074418800041A2A000C
:100EA00084418800042020009441880034282000D8
:100EB000A441880014D82000B4418800A0C0B30029
:100EC00038E8B700041A2A00D44188000420200022
:100ED000E441880044182000F441880024D8200010
:100EE00004428800A0C0B30042E8B700B828EF0071
:100EF000B808F800B608F900B608F800B408F90018
:100F0000B408F800B208F9001221EF0044422F00A3
:100F10007408880004012A0094088800E400200076
:100F2000240C8800E4002000540C8800E400200019
:100F3000840C8800E4002000B40C88000408200021
:100F400024158800040E28000415880084EB2F0067
:100F500044158800A222EF000001020000000000FA
:100F6000BA28EF00D4458000830220000418E10075
:100F7000060034000060FE00A00020001201020004
:100F800000000000BA28EC00F6FF3700CE01020096
:100F9000000000000060FE0040A7A8000060FE0006
:100FA000E801020000000000A48C2000E446880054
:100FB000BE02020000000000CDC8BF00E242600097
:100FC000CAC8BF00DEE8B700DF68EF00CDC8BF00C9
:100FD000E0E8B700E168EF00E208F800E5FF9F00F5
:100FE000E208F900E368EF00680302000000000077
:100FF0003045880041458800CEC8BF00E24260000D
:10100000CBC8BF00DEE8B700DF68EF00CEC8BF0086
:10101000E0E8B700E168EF00E208F800E5FF9F00B4
:10102000E208F900E368EF00680302000000000036
:101030005045880061458800CDC8BF00E14260008E
:10104000CCC8BF00DEE8B700DF68EF00CFC8BF0044
:10105000E0E8B700E168EF00E208F800E5FF9F0074
:10106000E208F900E368EF006803020000000000F6
:101070007045880081458800E203020000000000FE
:101080007406020000000000C4FF37000040FE00AC
:0200000401F009
:1000000003C7000019800000338300000F31000097
:0C0010000F3300000700000003C00000D8
:00000001FF
;DSPIC30F4013
;CRC=E39C  CREATED="03-Ìבס-10 18:09"
