:020000040000FA
:0800000074010400000000007F
:100200003220EF00C3102000008041001040BA00EF
:100210000160EF0000000600477200006F750000EB
:100220006E6400005F730000746100007469000078
:100230006F6E000020760000322E00003620000095
:100240000D0A0000000000004F047800CF03780082
:100250004F037800CF0278000E02AE00FEFF370099
:100260000E02F8000608F900901080000E22A90086
:10027000000006000E02AE00080037002C0102004C
:100280000000000008E8B70008C8BF001922AF004E
:10029000FEFF37001AE2B7001B62EF000000060005
:1002A0001802AE00FEFF37001802F8000608F90039
:1002B000E01080001822A90000000600851F7800C9
:1002C0001802AE00060037005001020000000000D6
:1002D0000F22AF00FEFF370010E2B7001162EF00FF
:1002E000CF0278000000060004002800B410880047
:1002F00004402000C4108800F4002000F41088009E
:100300000400280064108800044020007410880055
:10031000F4002000A4108800A8A2EF000FF820002D
:10032000F0FF200020A0B700000000000028EF0030
:100330000628EF0022E2A80020C2A900040028003D
:100340001411880021E2A8000100200001007800BB
:1003500000010200000000008100E8000F22AF0051
:10036000FEFF370080108800500120000008E600E2
:10037000F6FF37003A010200000000005E010200B3
:0C03800000000000FBFF37000040FE0002
:0200000401F009
:1000000003C700003F000000338700000F310000ED
:0C0010000F3300000700000003C00000D8
:00000001FF
;DSPIC30F4013
;CRC=912D  CREATED="18-÷Â‚-10 16:56"
